{
  "_format": "hh-sol-artifact-1",
  "contractName": "HiddenValue",
  "sourceName": "contracts/HiddenValue.sol",
  "abi": [
    {
      "inputs": [
        {
          "internalType": "uint8",
          "name": "got",
          "type": "uint8"
        },
        {
          "internalType": "uint8",
          "name": "expected",
          "type": "uint8"
        }
      ],
      "name": "InvalidEncryptedInput",
      "type": "error"
    },
    {
      "inputs": [],
      "name": "get",
      "outputs": [
        {
          "internalType": "euint32",
          "name": "",
          "type": "uint256"
        }
      ],
      "stateMutability": "view",
      "type": "function"
    },
    {
      "inputs": [
        {
          "components": [
            {
              "internalType": "uint256",
              "name": "ctHash",
              "type": "uint256"
            },
            {
              "internalType": "uint8",
              "name": "securityZone",
              "type": "uint8"
            },
            {
              "internalType": "uint8",
              "name": "utype",
              "type": "uint8"
            },
            {
              "internalType": "bytes",
              "name": "signature",
              "type": "bytes"
            }
          ],
          "internalType": "struct InEuint32",
          "name": "encryptedInput",
          "type": "tuple"
        }
      ],
      "name": "set",
      "outputs": [],
      "stateMutability": "nonpayable",
      "type": "function"
    }
  ],
  "bytecode": "0x6080604052348015600e575f80fd5b506104938061001c5f395ff3fe608060405234801561000f575f80fd5b5060043610610034575f3560e01c80636d4ce63c14610038578063b95ca4fb1461004c575b5f80fd5b5f5460405190815260200160405180910390f35b61005f61005a366004610255565b610061565b005b61007261006d8261030f565b61008c565b5f81905561007f9061012c565b6100895f54610196565b50565b60408101515f9060049060ff1681146100cf5760408084015190516367cf307160e01b815260ff9182166004820152908216602482015260440160405180910390fd5b60408051608080820183525f808352602080840182905283850191909152606092830183905283519182018452865182528087015160ff16908201526004928101929092528085015190820152610125906101d4565b9392505050565b604051631974142760e21b81526004810182905230602482015273ea30c4b8b44078bbf8a6ef5b9f1ec1626c7848d9906365d0509c906044015b5f604051808303815f87803b15801561017d575f80fd5b505af115801561018f573d5f803e3d5ffd5b5050505050565b604051631974142760e21b81526004810182905233602482015273ea30c4b8b44078bbf8a6ef5b9f1ec1626c7848d9906365d0509c90604401610166565b6040516313fce3b160e11b81525f9073ea30c4b8b44078bbf8a6ef5b9f1ec1626c7848d9906327f9c7629061020f90859033906004016103d1565b6020604051808303815f875af115801561022b573d5f803e3d5ffd5b505050506040513d601f19601f8201168201806040525081019061024f9190610446565b92915050565b5f60208284031215610265575f80fd5b813567ffffffffffffffff81111561027b575f80fd5b820160808185031215610125575f80fd5b634e487b7160e01b5f52604160045260245ffd5b6040516080810167ffffffffffffffff811182821017156102c3576102c361028c565b60405290565b604051601f8201601f1916810167ffffffffffffffff811182821017156102f2576102f261028c565b604052919050565b803560ff8116811461030a575f80fd5b919050565b5f6080823603121561031f575f80fd5b6103276102a0565b8235815260206103388185016102fa565b81830152610348604085016102fa565b6040830152606084013567ffffffffffffffff80821115610367575f80fd5b9085019036601f830112610379575f80fd5b81358181111561038b5761038b61028c565b61039d601f8201601f191685016102c9565b915080825236848285010111156103b2575f80fd5b80848401858401375f9082019093019290925250606082015292915050565b604081528251604082015260ff602084015116606082015260ff60408401511660808201525f6060840151608060a084015280518060c0850152806020830160e086015e5f60e08286018101919091526001600160a01b03959095166020850152601f01601f19169092019092019392505050565b5f60208284031215610456575f80fd5b505191905056fea264697066735822122030ea8e13eecc0cc0eabd36baea7061fec784ce528729d359e36ef01b43f6729a64736f6c63430008190033",
  "linkReferences": {},
  "deployedLinkReferences": {}
}