{
  "_format": "hh-sol-artifact-1",
  "contractName": "PrivateVoting",
  "sourceName": "contracts/PrivateVoting.sol",
  "abi": [
    {
      "inputs": [
        {
          "internalType": "uint8",
          "name": "got",
          "type": "uint8"
        },
        {
          "internalType": "uint8",
          "name": "expected",
          "type": "uint8"
        }
      ],
      "name": "InvalidEncryptedInput",
      "type": "error"
    },
    {
      "inputs": [],
      "name": "InvalidShortString",
      "type": "error"
    },
    {
      "inputs": [],
      "name": "PermissionInvalid_Disabled",
      "type": "error"
    },
    {
      "inputs": [],
      "name": "PermissionInvalid_Expired",
      "type": "error"
    },
    {
      "inputs": [],
      "name": "PermissionInvalid_IssuerSignature",
      "type": "error"
    },
    {
      "inputs": [],
      "name": "PermissionInvalid_RecipientSignature",
      "type": "error"
    },
    {
      "inputs": [
        {
          "internalType": "int32",
          "name": "value",
          "type": "int32"
        }
      ],
      "name": "SecurityZoneOutOfBounds",
      "type": "error"
    },
    {
      "inputs": [
        {
          "internalType": "string",
          "name": "str",
          "type": "string"
        }
      ],
      "name": "StringTooLong",
      "type": "error"
    },
    {
      "anonymous": false,
      "inputs": [],
      "name": "EIP712DomainChanged",
      "type": "event"
    },
    {
      "anonymous": false,
      "inputs": [
        {
          "indexed": true,
          "internalType": "address",
          "name": "voter",
          "type": "address"
        }
      ],
      "name": "VoteCast",
      "type": "event"
    },
    {
      "inputs": [],
      "name": "eip712Domain",
      "outputs": [
        {
          "internalType": "bytes1",
          "name": "fields",
          "type": "bytes1"
        },
        {
          "internalType": "string",
          "name": "name",
          "type": "string"
        },
        {
          "internalType": "string",
          "name": "version",
          "type": "string"
        },
        {
          "internalType": "uint256",
          "name": "chainId",
          "type": "uint256"
        },
        {
          "internalType": "address",
          "name": "verifyingContract",
          "type": "address"
        },
        {
          "internalType": "bytes32",
          "name": "salt",
          "type": "bytes32"
        },
        {
          "internalType": "uint256[]",
          "name": "extensions",
          "type": "uint256[]"
        }
      ],
      "stateMutability": "view",
      "type": "function"
    },
    {
      "inputs": [
        {
          "components": [
            {
              "internalType": "address",
              "name": "issuer",
              "type": "address"
            },
            {
              "internalType": "uint64",
              "name": "expiration",
              "type": "uint64"
            },
            {
              "internalType": "address",
              "name": "recipient",
              "type": "address"
            },
            {
              "internalType": "uint256",
              "name": "validatorId",
              "type": "uint256"
            },
            {
              "internalType": "address",
              "name": "validatorContract",
              "type": "address"
            },
            {
              "internalType": "bytes32",
              "name": "sealingKey",
              "type": "bytes32"
            },
            {
              "internalType": "bytes",
              "name": "issuerSignature",
              "type": "bytes"
            },
            {
              "internalType": "bytes",
              "name": "recipientSignature",
              "type": "bytes"
            }
          ],
          "internalType": "struct Permission",
          "name": "permission",
          "type": "tuple"
        }
      ],
      "name": "getResultsSealed",
      "outputs": [
        {
          "components": [
            {
              "internalType": "uint256",
              "name": "data",
              "type": "uint256"
            }
          ],
          "internalType": "struct PrivateVoting.SealedUint",
          "name": "yesSealed",
          "type": "tuple"
        },
        {
          "components": [
            {
              "internalType": "uint256",
              "name": "data",
              "type": "uint256"
            }
          ],
          "internalType": "struct PrivateVoting.SealedUint",
          "name": "noSealed",
          "type": "tuple"
        }
      ],
      "stateMutability": "nonpayable",
      "type": "function"
    },
    {
      "inputs": [
        {
          "internalType": "address",
          "name": "",
          "type": "address"
        }
      ],
      "name": "hasVoted",
      "outputs": [
        {
          "internalType": "bool",
          "name": "",
          "type": "bool"
        }
      ],
      "stateMutability": "view",
      "type": "function"
    },
    {
      "inputs": [
        {
          "internalType": "bytes32",
          "name": "structHash",
          "type": "bytes32"
        }
      ],
      "name": "hashTypedDataV4",
      "outputs": [
        {
          "internalType": "bytes32",
          "name": "",
          "type": "bytes32"
        }
      ],
      "stateMutability": "view",
      "type": "function"
    },
    {
      "inputs": [
        {
          "components": [
            {
              "internalType": "uint256",
              "name": "ctHash",
              "type": "uint256"
            },
            {
              "internalType": "uint8",
              "name": "securityZone",
              "type": "uint8"
            },
            {
              "internalType": "uint8",
              "name": "utype",
              "type": "uint8"
            },
            {
              "internalType": "bytes",
              "name": "signature",
              "type": "bytes"
            }
          ],
          "internalType": "struct InEbool",
          "name": "encryptedVote",
          "type": "tuple"
        }
      ],
      "name": "vote",
      "outputs": [],
      "stateMutability": "nonpayable",
      "type": "function"
    }
  ],
  "bytecode": "0x610160604052348015610010575f80fd5b5060408051808201825260038152621050d360ea1b602080830191909152825180840190935260018352603160f81b908301529061004e825f6100f7565b6101205261005d8160016100f7565b61014052815160208084019190912060e052815190820120610100524660a0526100e960e05161010051604080517f8b73c3c69bb8fe3d512ecc4cf759cc79239f7b179b0ffacaa9a75d522b39400f60208201529081019290925260608201524660808201523060a08201525f9060c00160405160208183030381529060405280519060200120905090565b60805250503060c05261031e565b5f6020835110156101125761010b83610129565b9050610123565b8161011d8482610207565b5060ff90505b92915050565b5f80829050601f8151111561015c578260405163305a27a960e01b815260040161015391906102c6565b60405180910390fd5b8051610167826102fb565b179392505050565b634e487b7160e01b5f52604160045260245ffd5b600181811c9082168061019757607f821691505b6020821081036101b557634e487b7160e01b5f52602260045260245ffd5b50919050565b601f82111561020257805f5260205f20601f840160051c810160208510156101e05750805b601f840160051c820191505b818110156101ff575f81556001016101ec565b50505b505050565b81516001600160401b038111156102205761022061016f565b6102348161022e8454610183565b846101bb565b602080601f831160018114610267575f84156102505750858301515b5f19600386901b1c1916600185901b1785556102be565b5f85815260208120601f198616915b8281101561029557888601518255948401946001909101908401610276565b50858210156102b257878501515f19600388901b60f8161c191681555b505060018460011b0185555b505050505050565b602081525f82518060208401528060208501604085015e5f604082850101526040601f19601f83011684010191505092915050565b805160208083015191908110156101b5575f1960209190910360031b1b16919050565b60805160a05160c05160e05161010051610120516101405161165261036f5f395f6104c401525f61049301525f61097901525f61095101525f6108ac01525f6108d601525f61090001526116525ff3fe608060405234801561000f575f80fd5b5060043610610055575f3560e01c806309eef43e146100595780634980f2881461009057806384b0196e146100b1578063b7d05277146100cc578063bc11cb3f146100f4575b5f80fd5b61007b610067366004611102565b60046020525f908152604090205460ff1681565b60405190151581526020015b60405180910390f35b6100a361009e36600461111b565b610109565b604051908152602001610087565b6100b9610119565b604051610087979695949392919061119a565b6100df6100da3660046112e7565b61015b565b60408051925183529051602083015201610087565b6101076101023660046113cb565b610343565b005b5f61011382610460565b92915050565b5f6060805f805f606061012a61048c565b6101326104bd565b604080515f80825260208201909252600f60f81b9b939a50919850469750309650945092509050565b60408051602081019091525f815260408051602081019091525f81528242816020015167ffffffffffffffff1610156101a75760405163ed0764a160e01b815260040160405180910390fd5b80516101c8906101be6101b9846104ea565b610460565b8360c00151610510565b6101e557604051634c40eccb60e01b815260040160405180910390fd5b60408101516001600160a01b03161580159061021c575061021a81604001516102106101b984610583565b8360e00151610510565b155b1561023a57604051638e143bf760e01b815260040160405180910390fd5b606081015115801590610259575060808101516001600160a01b031615155b80156102dc57506080810151815160608301516040516316c6723d60e31b81526001600160a01b039283166004820152602481019190915291169063b63391e890604401602060405180830381865afa1580156102b8573d5f803e3d5ffd5b505050506040513d601f19601f820116820180604052508101906102dc9190611402565b156102fa576040516365e9d4b360e11b815260040160405180910390fd5b5f61030b6002548660a001516105f6565b90505f61031e6003548760a001516105f6565b6040805160208082018352948152815194850190915290835296919550909350505050565b335f9081526004602052604090205460ff16156103975760405162461bcd60e51b815260206004820152600d60248201526c105b1c9958591e481d9bdd1959609a1b60448201526064015b60405180910390fd5b335f908152600460205260408120805460ff191660011790556103c16103bc83611431565b610702565b90505f6103ce6001610792565b90505f6103da5f610792565b90505f6103e884848461079d565b90505f6103f685848661079d565b9050610404600254836107f6565b60025560035461041490826107f6565b60035560025461042390610837565b61042e600354610837565b60405133907fb87a61d78bd15221c59b983f6ef032fbde0631e66bfe18d1421fe5a73c16741d905f90a2505050505050565b5f61011361046c6108a0565b8360405161190160f01b8152600281019290925260228201526042902090565b60606104b87f00000000000000000000000000000000000000000000000000000000000000005f6109c9565b905090565b60606104b87f000000000000000000000000000000000000000000000000000000000000000060016109c9565b60408101515f906001600160a01b03166105075761011382610a72565b61011382610b07565b5f836001600160a01b03163b5f0361056e575f8061052e8585610b8f565b5090925090505f816003811115610547576105476114bb565b1480156105655750856001600160a01b0316826001600160a01b0316145b9250505061057c565b610579848484610bd8565b90505b9392505050565b5f7f82af07a6c9eb6bb31a0c86f7f5cad0039589750ad5b4b925ed5741f7ad4e8d4b8260a001518360c00151805190602001206040516020016105d9939291909283526020830191909152604082015260600190565b604051602081830303815290604052805190602001209050919050565b6040805160018082528183019092525f918291906020808301908036833701905050905083815f8151811061062d5761062d6114cf565b60209081029190910101526040805160018082528183019092525f91816020016020820280368337019050509050835f1c815f81518110610670576106706114cf565b6020908102919091010152604051631888debd60e01b815273ea30c4b8b44078bbf8a6ef5b9f1ec1626c7848d990631888debd906106b9905f9060039087908790600401611503565b6020604051808303815f875af11580156106d5573d5f803e3d5ffd5b505050506040513d601f19601f820116820180604052508101906106f99190611548565b95945050505050565b60408101515f90819060ff161561073f5760408084015190516367cf307160e01b815260ff9182166004820152908216602482015260440161038e565b60408051608080820183525f8083526020808401829052838501829052606093840184905284519283018552875183528088015160ff169083015292810192909252808501519082015261057c90610caf565b5f610113825f610d2a565b5f6107a784610d40565b6107b7576107b45f610d49565b93505b6107c083610d40565b6107d0576107cd5f610792565b92505b6107d982610d40565b6107e9576107e65f610792565b91505b6105796004858585610d54565b5f61080083610d40565b6108105761080d5f610792565b92505b61081982610d40565b610829576108265f610792565b91505b61057c600484846008610dae565b604051631974142760e21b81526004810182905230602482015273ea30c4b8b44078bbf8a6ef5b9f1ec1626c7848d9906365d0509c906044015f604051808303815f87803b158015610887575f80fd5b505af1158015610899573d5f803e3d5ffd5b5050505050565b5f306001600160a01b037f0000000000000000000000000000000000000000000000000000000000000000161480156108f857507f000000000000000000000000000000000000000000000000000000000000000046145b1561092257507f000000000000000000000000000000000000000000000000000000000000000090565b6104b8604080517f8b73c3c69bb8fe3d512ecc4cf759cc79239f7b179b0ffacaa9a75d522b39400f60208201527f0000000000000000000000000000000000000000000000000000000000000000918101919091527f000000000000000000000000000000000000000000000000000000000000000060608201524660808201523060a08201525f9060c00160405160208183030381529060405280519060200120905090565b606060ff83146109e3576109dc83610dd5565b9050610113565b8180546109ef9061155f565b80601f0160208091040260200160405190810160405280929190818152602001828054610a1b9061155f565b8015610a665780601f10610a3d57610100808354040283529160200191610a66565b820191905f5260205f20905b815481529060010190602001808311610a4957829003601f168201915b50505050509050610113565b5f7f0ce0d938c38f948b8f9cf16098cd15ec62de132c8d422719ad270c5e2a101102825f015183602001518460400151856060015186608001518760a001516040516020016105d997969594939291909687526001600160a01b03958616602088015267ffffffffffffffff9490941660408701529184166060860152608085015290911660a083015260c082015260e00190565b5f7f8549e986c64faf9b741179c61561f9d39f337cf9739f86178d84dabc6ca4cad5825f015183602001518460400151856060015186608001516040516020016105d9969594939291909586526001600160a01b03948516602087015267ffffffffffffffff939093166040860152908316606085015260808401521660a082015260c00190565b5f805f8351604103610bc6576020840151604085015160608601515f1a610bb888828585610e12565b955095509550505050610bd1565b505081515f91506002905b9250925092565b5f805f856001600160a01b03168585604051602401610bf8929190611597565b60408051601f198184030181529181526020820180516001600160e01b0316630b135d3f60e11b17905251610c2d91906115af565b5f60405180830381855afa9150503d805f8114610c65576040519150601f19603f3d011682016040523d82523d5f602084013e610c6a565b606091505b5091509150818015610c7e57506020815110155b8015610ca557508051630b135d3f60e11b90610ca39083016020908101908401611548565b145b9695505050505050565b6040516313fce3b160e11b81525f9073ea30c4b8b44078bbf8a6ef5b9f1ec1626c7848d9906327f9c76290610cea90859033906004016115c5565b6020604051808303815f875af1158015610d06573d5f803e3d5ffd5b505050506040513d601f19601f820116820180604052508101906101139190611548565b5f80610d3884600485610eda565b949350505050565b5f811515610113565b5f610113825f610f7f565b5f73ea30c4b8b44078bbf8a6ef5b9f1ec1626c7848d9631888debd866004610d7d888888610f97565b604080515f815260208101918290526001600160e01b031960e087901b169091526106b99392919060248101611503565b5f73ea30c4b8b44078bbf8a6ef5b9f1ec1626c7848d9631888debd8684610d7d8888611022565b60605f610de18361108b565b6040805160208082528183019092529192505f91906020820181803683375050509182525060208101929092525090565b5f80807f7fffffffffffffffffffffffffffffff5d576e7357a4501ddfe92f46681b20a0841115610e4b57505f91506003905082610ed0565b604080515f808252602082018084528a905260ff891692820192909252606081018790526080810186905260019060a0016020604051602081039080840390855afa158015610e9c573d5f803e3d5ffd5b5050604051601f1901519150506001600160a01b038116610ec757505f925060019150829050610ed0565b92505f91508190505b9450945094915050565b604080515f8082526020820190925273ea30c4b8b44078bbf8a6ef5b9f1ec1626c7848d990631888debd908590601a90610f20898960ff16610f1b8a6110b2565b610f97565b6040518563ffffffff1660e01b8152600401610f3f9493929190611503565b6020604051808303815f875af1158015610f5b573d5f803e3d5ffd5b505050506040513d601f19601f820116820180604052508101906105799190611548565b5f808315610f8b575060015b5f6106f9825f86610eda565b604080516003808252608082019092526060915f919060208201848036833701905050905084815f81518110610fcf57610fcf6114cf565b6020026020010181815250508381600181518110610fef57610fef6114cf565b602002602001018181525050828160028151811061100f5761100f6114cf565b6020908102919091010152949350505050565b60408051600280825260608083018452925f92919060208301908036833701905050905083815f81518110611059576110596114cf565b6020026020010181815250508281600181518110611079576110796114cf565b60209081029190910101529392505050565b5f60ff8216601f81111561011357604051632cd44ac360e21b815260040160405180910390fd5b5f808260030b12156110dd576040516311ead17f60e31b8152600383900b600482015260240161038e565b5063ffffffff1690565b80356001600160a01b03811681146110fd575f80fd5b919050565b5f60208284031215611112575f80fd5b61057c826110e7565b5f6020828403121561112b575f80fd5b5035919050565b5f81518084528060208401602086015e5f602082860101526020601f19601f83011685010191505092915050565b5f815180845260208085019450602084015f5b8381101561118f57815187529582019590820190600101611173565b509495945050505050565b60ff60f81b8816815260e060208201525f6111b860e0830189611132565b82810360408401526111ca8189611132565b606084018890526001600160a01b038716608085015260a0840186905283810360c085015290506111fb8185611160565b9a9950505050505050505050565b634e487b7160e01b5f52604160045260245ffd5b604051610100810167ffffffffffffffff8111828210171561124157611241611209565b60405290565b803567ffffffffffffffff811681146110fd575f80fd5b5f82601f83011261126d575f80fd5b813567ffffffffffffffff8082111561128857611288611209565b604051601f8301601f19908116603f011681019082821181831017156112b0576112b0611209565b816040528381528660208588010111156112c8575f80fd5b836020870160208301375f602085830101528094505050505092915050565b5f602082840312156112f7575f80fd5b813567ffffffffffffffff8082111561130e575f80fd5b908301906101008286031215611322575f80fd5b61132a61121d565b611333836110e7565b815261134160208401611247565b6020820152611352604084016110e7565b60408201526060830135606082015261136d608084016110e7565b608082015260a083013560a082015260c08301358281111561138d575f80fd5b6113998782860161125e565b60c08301525060e0830135828111156113b0575f80fd5b6113bc8782860161125e565b60e08301525095945050505050565b5f602082840312156113db575f80fd5b813567ffffffffffffffff8111156113f1575f80fd5b82016080818503121561057c575f80fd5b5f60208284031215611412575f80fd5b8151801515811461057c575f80fd5b803560ff811681146110fd575f80fd5b5f60808236031215611441575f80fd5b6040516080810167ffffffffffffffff828210818311171561146557611465611209565b816040528435835261147960208601611421565b602084015261148a60408601611421565b604084015260608501359150808211156114a2575f80fd5b506114af3682860161125e565b60608301525092915050565b634e487b7160e01b5f52602160045260245ffd5b634e487b7160e01b5f52603260045260245ffd5b602081106114ff57634e487b7160e01b5f52602160045260245ffd5b9052565b60ff8516815261151660208201856114e3565b608060408201525f61152b6080830185611160565b828103606084015261153d8185611160565b979650505050505050565b5f60208284031215611558575f80fd5b5051919050565b600181811c9082168061157357607f821691505b60208210810361159157634e487b7160e01b5f52602260045260245ffd5b50919050565b828152604060208201525f6105796040830184611132565b5f82518060208501845e5f920191825250919050565b604081528251604082015260ff602084015116606082015260ff60408401511660808201525f6060840151608060a084015261160460c0840182611132565b91505060018060a01b0383166020830152939250505056fea264697066735822122087058919541e6a35ec8ccc70adaa54010caa296a19239041db27230f4585605064736f6c63430008190033",
  "linkReferences": {},
  "deployedLinkReferences": {}
}