{
  "_format": "hh-sol-artifact-1",
  "contractName": "FhenixLearnBadge",
  "sourceName": "contracts/FhenixLearnBadge.sol",
  "abi": [
    {
      "inputs": [],
      "stateMutability": "nonpayable",
      "type": "constructor"
    },
    {
      "inputs": [
        {
          "internalType": "address",
          "name": "sender",
          "type": "address"
        },
        {
          "internalType": "uint256",
          "name": "tokenId",
          "type": "uint256"
        },
        {
          "internalType": "address",
          "name": "owner",
          "type": "address"
        }
      ],
      "name": "ERC721IncorrectOwner",
      "type": "error"
    },
    {
      "inputs": [
        {
          "internalType": "address",
          "name": "operator",
          "type": "address"
        },
        {
          "internalType": "uint256",
          "name": "tokenId",
          "type": "uint256"
        }
      ],
      "name": "ERC721InsufficientApproval",
      "type": "error"
    },
    {
      "inputs": [
        {
          "internalType": "address",
          "name": "approver",
          "type": "address"
        }
      ],
      "name": "ERC721InvalidApprover",
      "type": "error"
    },
    {
      "inputs": [
        {
          "internalType": "address",
          "name": "operator",
          "type": "address"
        }
      ],
      "name": "ERC721InvalidOperator",
      "type": "error"
    },
    {
      "inputs": [
        {
          "internalType": "address",
          "name": "owner",
          "type": "address"
        }
      ],
      "name": "ERC721InvalidOwner",
      "type": "error"
    },
    {
      "inputs": [
        {
          "internalType": "address",
          "name": "receiver",
          "type": "address"
        }
      ],
      "name": "ERC721InvalidReceiver",
      "type": "error"
    },
    {
      "inputs": [
        {
          "internalType": "address",
          "name": "sender",
          "type": "address"
        }
      ],
      "name": "ERC721InvalidSender",
      "type": "error"
    },
    {
      "inputs": [
        {
          "internalType": "uint256",
          "name": "tokenId",
          "type": "uint256"
        }
      ],
      "name": "ERC721NonexistentToken",
      "type": "error"
    },
    {
      "inputs": [
        {
          "internalType": "address",
          "name": "owner",
          "type": "address"
        }
      ],
      "name": "OwnableInvalidOwner",
      "type": "error"
    },
    {
      "inputs": [
        {
          "internalType": "address",
          "name": "account",
          "type": "address"
        }
      ],
      "name": "OwnableUnauthorizedAccount",
      "type": "error"
    },
    {
      "anonymous": false,
      "inputs": [
        {
          "indexed": true,
          "internalType": "address",
          "name": "owner",
          "type": "address"
        },
        {
          "indexed": true,
          "internalType": "address",
          "name": "approved",
          "type": "address"
        },
        {
          "indexed": true,
          "internalType": "uint256",
          "name": "tokenId",
          "type": "uint256"
        }
      ],
      "name": "Approval",
      "type": "event"
    },
    {
      "anonymous": false,
      "inputs": [
        {
          "indexed": true,
          "internalType": "address",
          "name": "owner",
          "type": "address"
        },
        {
          "indexed": true,
          "internalType": "address",
          "name": "operator",
          "type": "address"
        },
        {
          "indexed": false,
          "internalType": "bool",
          "name": "approved",
          "type": "bool"
        }
      ],
      "name": "ApprovalForAll",
      "type": "event"
    },
    {
      "anonymous": false,
      "inputs": [
        {
          "indexed": true,
          "internalType": "address",
          "name": "to",
          "type": "address"
        },
        {
          "indexed": true,
          "internalType": "uint256",
          "name": "tokenId",
          "type": "uint256"
        },
        {
          "indexed": false,
          "internalType": "string",
          "name": "uri",
          "type": "string"
        }
      ],
      "name": "BadgeMinted",
      "type": "event"
    },
    {
      "anonymous": false,
      "inputs": [
        {
          "indexed": false,
          "internalType": "uint256",
          "name": "_fromTokenId",
          "type": "uint256"
        },
        {
          "indexed": false,
          "internalType": "uint256",
          "name": "_toTokenId",
          "type": "uint256"
        }
      ],
      "name": "BatchMetadataUpdate",
      "type": "event"
    },
    {
      "anonymous": false,
      "inputs": [
        {
          "indexed": false,
          "internalType": "uint256",
          "name": "_tokenId",
          "type": "uint256"
        }
      ],
      "name": "MetadataUpdate",
      "type": "event"
    },
    {
      "anonymous": false,
      "inputs": [
        {
          "indexed": true,
          "internalType": "address",
          "name": "previousOwner",
          "type": "address"
        },
        {
          "indexed": true,
          "internalType": "address",
          "name": "newOwner",
          "type": "address"
        }
      ],
      "name": "OwnershipTransferred",
      "type": "event"
    },
    {
      "anonymous": false,
      "inputs": [
        {
          "indexed": true,
          "internalType": "address",
          "name": "from",
          "type": "address"
        },
        {
          "indexed": true,
          "internalType": "address",
          "name": "to",
          "type": "address"
        },
        {
          "indexed": true,
          "internalType": "uint256",
          "name": "tokenId",
          "type": "uint256"
        }
      ],
      "name": "Transfer",
      "type": "event"
    },
    {
      "inputs": [
        {
          "internalType": "address",
          "name": "to",
          "type": "address"
        },
        {
          "internalType": "string",
          "name": "uri",
          "type": "string"
        }
      ],
      "name": "adminMint",
      "outputs": [
        {
          "internalType": "uint256",
          "name": "",
          "type": "uint256"
        }
      ],
      "stateMutability": "nonpayable",
      "type": "function"
    },
    {
      "inputs": [
        {
          "internalType": "address",
          "name": "to",
          "type": "address"
        },
        {
          "internalType": "uint256",
          "name": "tokenId",
          "type": "uint256"
        }
      ],
      "name": "approve",
      "outputs": [],
      "stateMutability": "nonpayable",
      "type": "function"
    },
    {
      "inputs": [
        {
          "internalType": "address",
          "name": "owner",
          "type": "address"
        }
      ],
      "name": "balanceOf",
      "outputs": [
        {
          "internalType": "uint256",
          "name": "",
          "type": "uint256"
        }
      ],
      "stateMutability": "view",
      "type": "function"
    },
    {
      "inputs": [
        {
          "internalType": "uint256",
          "name": "tokenId",
          "type": "uint256"
        }
      ],
      "name": "getApproved",
      "outputs": [
        {
          "internalType": "address",
          "name": "",
          "type": "address"
        }
      ],
      "stateMutability": "view",
      "type": "function"
    },
    {
      "inputs": [
        {
          "internalType": "address",
          "name": "owner",
          "type": "address"
        },
        {
          "internalType": "address",
          "name": "operator",
          "type": "address"
        }
      ],
      "name": "isApprovedForAll",
      "outputs": [
        {
          "internalType": "bool",
          "name": "",
          "type": "bool"
        }
      ],
      "stateMutability": "view",
      "type": "function"
    },
    {
      "inputs": [
        {
          "internalType": "string",
          "name": "uri",
          "type": "string"
        }
      ],
      "name": "mint",
      "outputs": [
        {
          "internalType": "uint256",
          "name": "",
          "type": "uint256"
        }
      ],
      "stateMutability": "nonpayable",
      "type": "function"
    },
    {
      "inputs": [],
      "name": "name",
      "outputs": [
        {
          "internalType": "string",
          "name": "",
          "type": "string"
        }
      ],
      "stateMutability": "view",
      "type": "function"
    },
    {
      "inputs": [],
      "name": "owner",
      "outputs": [
        {
          "internalType": "address",
          "name": "",
          "type": "address"
        }
      ],
      "stateMutability": "view",
      "type": "function"
    },
    {
      "inputs": [
        {
          "internalType": "uint256",
          "name": "tokenId",
          "type": "uint256"
        }
      ],
      "name": "ownerOf",
      "outputs": [
        {
          "internalType": "address",
          "name": "",
          "type": "address"
        }
      ],
      "stateMutability": "view",
      "type": "function"
    },
    {
      "inputs": [],
      "name": "renounceOwnership",
      "outputs": [],
      "stateMutability": "nonpayable",
      "type": "function"
    },
    {
      "inputs": [
        {
          "internalType": "address",
          "name": "from",
          "type": "address"
        },
        {
          "internalType": "address",
          "name": "to",
          "type": "address"
        },
        {
          "internalType": "uint256",
          "name": "tokenId",
          "type": "uint256"
        }
      ],
      "name": "safeTransferFrom",
      "outputs": [],
      "stateMutability": "nonpayable",
      "type": "function"
    },
    {
      "inputs": [
        {
          "internalType": "address",
          "name": "from",
          "type": "address"
        },
        {
          "internalType": "address",
          "name": "to",
          "type": "address"
        },
        {
          "internalType": "uint256",
          "name": "tokenId",
          "type": "uint256"
        },
        {
          "internalType": "bytes",
          "name": "data",
          "type": "bytes"
        }
      ],
      "name": "safeTransferFrom",
      "outputs": [],
      "stateMutability": "nonpayable",
      "type": "function"
    },
    {
      "inputs": [
        {
          "internalType": "address",
          "name": "operator",
          "type": "address"
        },
        {
          "internalType": "bool",
          "name": "approved",
          "type": "bool"
        }
      ],
      "name": "setApprovalForAll",
      "outputs": [],
      "stateMutability": "nonpayable",
      "type": "function"
    },
    {
      "inputs": [
        {
          "internalType": "bytes4",
          "name": "interfaceId",
          "type": "bytes4"
        }
      ],
      "name": "supportsInterface",
      "outputs": [
        {
          "internalType": "bool",
          "name": "",
          "type": "bool"
        }
      ],
      "stateMutability": "view",
      "type": "function"
    },
    {
      "inputs": [],
      "name": "symbol",
      "outputs": [
        {
          "internalType": "string",
          "name": "",
          "type": "string"
        }
      ],
      "stateMutability": "view",
      "type": "function"
    },
    {
      "inputs": [
        {
          "internalType": "uint256",
          "name": "tokenId",
          "type": "uint256"
        }
      ],
      "name": "tokenURI",
      "outputs": [
        {
          "internalType": "string",
          "name": "",
          "type": "string"
        }
      ],
      "stateMutability": "view",
      "type": "function"
    },
    {
      "inputs": [
        {
          "internalType": "address",
          "name": "from",
          "type": "address"
        },
        {
          "internalType": "address",
          "name": "to",
          "type": "address"
        },
        {
          "internalType": "uint256",
          "name": "tokenId",
          "type": "uint256"
        }
      ],
      "name": "transferFrom",
      "outputs": [],
      "stateMutability": "nonpayable",
      "type": "function"
    },
    {
      "inputs": [
        {
          "internalType": "address",
          "name": "newOwner",
          "type": "address"
        }
      ],
      "name": "transferOwnership",
      "outputs": [],
      "stateMutability": "nonpayable",
      "type": "function"
    }
  ],
  "bytecode": "0x608060405234801561000f575f80fd5b5033604051806040016040528060128152602001714668656e6978204c6561726e20426164676560701b8152506040518060400160405280600381526020016223242160e91b815250815f9081610066919061019b565b506001610073828261019b565b5050506001600160a01b0381166100a357604051631e4fbdf760e01b81525f600482015260240160405180910390fd5b6100ac816100b2565b5061025a565b600780546001600160a01b038381166001600160a01b0319831681179093556040519116919082907f8be0079c531659141344cd1fd0a4f28419497f9722a3daafe3b4186f6b6457e0905f90a35050565b634e487b7160e01b5f52604160045260245ffd5b600181811c9082168061012b57607f821691505b60208210810361014957634e487b7160e01b5f52602260045260245ffd5b50919050565b601f82111561019657805f5260205f20601f840160051c810160208510156101745750805b601f840160051c820191505b81811015610193575f8155600101610180565b50505b505050565b81516001600160401b038111156101b4576101b4610103565b6101c8816101c28454610117565b8461014f565b602080601f8311600181146101fb575f84156101e45750858301515b5f19600386901b1c1916600185901b178555610252565b5f85815260208120601f198616915b828110156102295788860151825594840194600190910190840161020a565b508582101561024657878501515f19600388901b60f8161c191681555b505060018460011b0185555b505050505050565b6114a6806102675f395ff3fe608060405234801561000f575f80fd5b5060043610610111575f3560e01c8063715018a61161009e578063b88d4fde1161006e578063b88d4fde14610233578063c87b56dd14610246578063d85d3d2714610259578063e985e9c51461026c578063f2fde38b1461027f575f80fd5b8063715018a6146101ff5780638da5cb5b1461020757806395d89b4114610218578063a22cb46514610220575f80fd5b806323b872dd116100e457806323b872dd1461019257806342842e0e146101a55780635919c74b146101b85780636352211e146101d957806370a08231146101ec575f80fd5b806301ffc9a71461011557806306fdde031461013d578063081812fc14610152578063095ea7b31461017d575b5f80fd5b610128610123366004610f88565b610292565b60405190151581526020015b60405180910390f35b6101456102bc565b6040516101349190610fd1565b610165610160366004610fe3565b61034b565b6040516001600160a01b039091168152602001610134565b61019061018b366004611015565b610372565b005b6101906101a036600461103d565b610381565b6101906101b336600461103d565b61040f565b6101cb6101c636600461111b565b61042e565b604051908152602001610134565b6101656101e7366004610fe3565b6104aa565b6101cb6101fa366004611166565b6104b4565b6101906104f9565b6007546001600160a01b0316610165565b61014561050c565b61019061022e36600461117f565b61051b565b6101906102413660046111b8565b610526565b610145610254366004610fe3565b61053e565b6101cb61026736600461122f565b610649565b61012861027a366004611261565b6106be565b61019061028d366004611166565b6106eb565b5f6001600160e01b03198216632483248360e11b14806102b657506102b682610728565b92915050565b60605f80546102ca90611292565b80601f01602080910402602001604051908101604052809291908181526020018280546102f690611292565b80156103415780601f1061031857610100808354040283529160200191610341565b820191905f5260205f20905b81548152906001019060200180831161032457829003601f168201915b5050505050905090565b5f61035582610777565b505f828152600460205260409020546001600160a01b03166102b6565b61037d8282336107af565b5050565b6001600160a01b0382166103af57604051633250574960e11b81525f60048201526024015b60405180910390fd5b5f6103bb8383336107bc565b9050836001600160a01b0316816001600160a01b031614610409576040516364283d7b60e01b81526001600160a01b03808616600483015260248201849052821660448201526064016103a6565b50505050565b61042983838360405180602001604052805f815250610526565b505050565b5f6104376108ae565b600880545f9182610447836112ca565b91905055905061045784826108db565b61046181846108f4565b80846001600160a01b03167f6854c057dc92416510857b3daad5434a4202a4d192cf0f85d496d91974efaea38560405161049b9190610fd1565b60405180910390a39392505050565b5f6102b682610777565b5f6001600160a01b0382166104de576040516322718ad960e21b81525f60048201526024016103a6565b506001600160a01b03165f9081526003602052604090205490565b6105016108ae565b61050a5f610943565b565b6060600180546102ca90611292565b61037d338383610994565b610531848484610381565b6104093385858585610a32565b606061054982610777565b505f828152600660205260408120805461056290611292565b80601f016020809104026020016040519081016040528092919081815260200182805461058e90611292565b80156105d95780601f106105b0576101008083540402835291602001916105d9565b820191905f5260205f20905b8154815290600101906020018083116105bc57829003601f168201915b505050505090505f6105f560408051602081019091525f815290565b905080515f03610606575092915050565b815115610638578082604051602001610620929190611305565b60405160208183030381529060405292505050919050565b61064184610b5a565b949350505050565b600880545f918291908261065c836112ca565b91905055905061066c33826108db565b61067681846108f4565b80336001600160a01b03167f6854c057dc92416510857b3daad5434a4202a4d192cf0f85d496d91974efaea3856040516106b09190610fd1565b60405180910390a392915050565b6001600160a01b039182165f90815260056020908152604080832093909416825291909152205460ff1690565b6106f36108ae565b6001600160a01b03811661071c57604051631e4fbdf760e01b81525f60048201526024016103a6565b61072581610943565b50565b5f6001600160e01b031982166380ac58cd60e01b148061075857506001600160e01b03198216635b5e139f60e01b145b806102b657506301ffc9a760e01b6001600160e01b03198316146102b6565b5f818152600260205260408120546001600160a01b0316806102b657604051637e27328960e01b8152600481018490526024016103a6565b6104298383836001610bcb565b5f828152600260205260408120546001600160a01b03908116908316156107e8576107e8818486610ccf565b6001600160a01b03811615610822576108035f855f80610bcb565b6001600160a01b0381165f90815260036020526040902080545f190190555b6001600160a01b03851615610850576001600160a01b0385165f908152600360205260409020805460010190555b5f8481526002602052604080822080546001600160a01b0319166001600160a01b0389811691821790925591518793918516917fddf252ad1be2c89b69c2b068fc378daa952ba7f163c4a11628f55a4df523b3ef91a4949350505050565b6007546001600160a01b0316331461050a5760405163118cdaa760e01b81523360048201526024016103a6565b61037d828260405180602001604052805f815250610d33565b5f82815260066020526040902061090b828261135d565b506040518281527ff8e1a15aba9398e019f0b49df1a4fde98ee17ae345cb5f6b5e2c27f5033e8ce79060200160405180910390a15050565b600780546001600160a01b038381166001600160a01b0319831681179093556040519116919082907f8be0079c531659141344cd1fd0a4f28419497f9722a3daafe3b4186f6b6457e0905f90a35050565b6001600160a01b0382166109c657604051630b61174360e31b81526001600160a01b03831660048201526024016103a6565b6001600160a01b038381165f81815260056020908152604080832094871680845294825291829020805460ff191686151590811790915591519182527f17307eab39ab6107e8899845ad3d59bd9653f200f220920489ca2b5937696c31910160405180910390a3505050565b6001600160a01b0383163b15610b5357604051630a85bd0160e11b81526001600160a01b0384169063150b7a0290610a74908890889087908790600401611419565b6020604051808303815f875af1925050508015610aae575060408051601f3d908101601f19168201909252610aab91810190611455565b60015b610b15573d808015610adb576040519150601f19603f3d011682016040523d82523d5f602084013e610ae0565b606091505b5080515f03610b0d57604051633250574960e11b81526001600160a01b03851660048201526024016103a6565b805160208201fd5b6001600160e01b03198116630a85bd0160e11b14610b5157604051633250574960e11b81526001600160a01b03851660048201526024016103a6565b505b5050505050565b6060610b6582610777565b505f610b7b60408051602081019091525f815290565b90505f815111610b995760405180602001604052805f815250610bc4565b80610ba384610d4a565b604051602001610bb4929190611305565b6040516020818303038152906040525b9392505050565b8080610bdf57506001600160a01b03821615155b15610ca0575f610bee84610777565b90506001600160a01b03831615801590610c1a5750826001600160a01b0316816001600160a01b031614155b8015610c2d5750610c2b81846106be565b155b15610c565760405163a9fbf51f60e01b81526001600160a01b03841660048201526024016103a6565b8115610c9e5783856001600160a01b0316826001600160a01b03167f8c5be1e5ebec7d5bd14f71427d1e84f3dd0314c0f7b2291e5b200ac8c7c3b92560405160405180910390a45b505b50505f90815260046020526040902080546001600160a01b0319166001600160a01b0392909216919091179055565b610cda838383610dda565b610429576001600160a01b038316610d0857604051637e27328960e01b8152600481018290526024016103a6565b60405163177e802f60e01b81526001600160a01b0383166004820152602481018290526044016103a6565b610d3d8383610e3b565b610429335f858585610a32565b60605f610d5683610e9c565b60010190505f8167ffffffffffffffff811115610d7557610d75611076565b6040519080825280601f01601f191660200182016040528015610d9f576020820181803683370190505b5090508181016020015b5f19016f181899199a1a9b1b9c1cb0b131b232b360811b600a86061a8153600a8504945084610da957509392505050565b5f6001600160a01b038316158015906106415750826001600160a01b0316846001600160a01b03161480610e135750610e1384846106be565b806106415750505f908152600460205260409020546001600160a01b03908116911614919050565b6001600160a01b038216610e6457604051633250574960e11b81525f60048201526024016103a6565b5f610e7083835f6107bc565b90506001600160a01b03811615610429576040516339e3563760e11b81525f60048201526024016103a6565b5f8072184f03e93ff9f4daa797ed6e38ed64bf6a1f0160401b8310610eda5772184f03e93ff9f4daa797ed6e38ed64bf6a1f0160401b830492506040015b6d04ee2d6d415b85acef81000000008310610f06576d04ee2d6d415b85acef8100000000830492506020015b662386f26fc100008310610f2457662386f26fc10000830492506010015b6305f5e1008310610f3c576305f5e100830492506008015b6127108310610f5057612710830492506004015b60648310610f62576064830492506002015b600a83106102b65760010192915050565b6001600160e01b031981168114610725575f80fd5b5f60208284031215610f98575f80fd5b8135610bc481610f73565b5f81518084528060208401602086015e5f602082860101526020601f19601f83011685010191505092915050565b602081525f610bc46020830184610fa3565b5f60208284031215610ff3575f80fd5b5035919050565b80356001600160a01b0381168114611010575f80fd5b919050565b5f8060408385031215611026575f80fd5b61102f83610ffa565b946020939093013593505050565b5f805f6060848603121561104f575f80fd5b61105884610ffa565b925061106660208501610ffa565b9150604084013590509250925092565b634e487b7160e01b5f52604160045260245ffd5b5f67ffffffffffffffff808411156110a4576110a4611076565b604051601f8501601f19908116603f011681019082821181831017156110cc576110cc611076565b816040528093508581528686860111156110e4575f80fd5b858560208301375f602087830101525050509392505050565b5f82601f83011261110c575f80fd5b610bc48383356020850161108a565b5f806040838503121561112c575f80fd5b61113583610ffa565b9150602083013567ffffffffffffffff811115611150575f80fd5b61115c858286016110fd565b9150509250929050565b5f60208284031215611176575f80fd5b610bc482610ffa565b5f8060408385031215611190575f80fd5b61119983610ffa565b9150602083013580151581146111ad575f80fd5b809150509250929050565b5f805f80608085870312156111cb575f80fd5b6111d485610ffa565b93506111e260208601610ffa565b925060408501359150606085013567ffffffffffffffff811115611204575f80fd5b8501601f81018713611214575f80fd5b6112238782356020840161108a565b91505092959194509250565b5f6020828403121561123f575f80fd5b813567ffffffffffffffff811115611255575f80fd5b610641848285016110fd565b5f8060408385031215611272575f80fd5b61127b83610ffa565b915061128960208401610ffa565b90509250929050565b600181811c908216806112a657607f821691505b6020821081036112c457634e487b7160e01b5f52602260045260245ffd5b50919050565b5f600182016112e757634e487b7160e01b5f52601160045260245ffd5b5060010190565b5f81518060208401855e5f93019283525090919050565b5f61064161131383866112ee565b846112ee565b601f82111561042957805f5260205f20601f840160051c8101602085101561133e5750805b601f840160051c820191505b81811015610b53575f815560010161134a565b815167ffffffffffffffff81111561137757611377611076565b61138b816113858454611292565b84611319565b602080601f8311600181146113be575f84156113a75750858301515b5f19600386901b1c1916600185901b178555610b51565b5f85815260208120601f198616915b828110156113ec578886015182559484019460019091019084016113cd565b508582101561140957878501515f19600388901b60f8161c191681555b5050505050600190811b01905550565b6001600160a01b03858116825284166020820152604081018390526080606082018190525f9061144b90830184610fa3565b9695505050505050565b5f60208284031215611465575f80fd5b8151610bc481610f7356fea2646970667358221220c6c6c55352b8f7fffefd28609570ffb2d6701c8f15ec62f855a703a0471e489164736f6c63430008190033",
  "linkReferences": {},
  "deployedLinkReferences": {}
}