{
  "_format": "hh-sol-artifact-1",
  "contractName": "PrivateCounter",
  "sourceName": "contracts/PrivateCounter.sol",
  "abi": [
    {
      "inputs": [
        {
          "internalType": "uint8",
          "name": "got",
          "type": "uint8"
        },
        {
          "internalType": "uint8",
          "name": "expected",
          "type": "uint8"
        }
      ],
      "name": "InvalidEncryptedInput",
      "type": "error"
    },
    {
      "inputs": [],
      "name": "InvalidShortString",
      "type": "error"
    },
    {
      "inputs": [],
      "name": "PermissionInvalid_Disabled",
      "type": "error"
    },
    {
      "inputs": [],
      "name": "PermissionInvalid_Expired",
      "type": "error"
    },
    {
      "inputs": [],
      "name": "PermissionInvalid_IssuerSignature",
      "type": "error"
    },
    {
      "inputs": [],
      "name": "PermissionInvalid_RecipientSignature",
      "type": "error"
    },
    {
      "inputs": [
        {
          "internalType": "int32",
          "name": "value",
          "type": "int32"
        }
      ],
      "name": "SecurityZoneOutOfBounds",
      "type": "error"
    },
    {
      "inputs": [
        {
          "internalType": "string",
          "name": "str",
          "type": "string"
        }
      ],
      "name": "StringTooLong",
      "type": "error"
    },
    {
      "anonymous": false,
      "inputs": [
        {
          "indexed": true,
          "internalType": "address",
          "name": "user",
          "type": "address"
        }
      ],
      "name": "CounterIncremented",
      "type": "event"
    },
    {
      "anonymous": false,
      "inputs": [],
      "name": "EIP712DomainChanged",
      "type": "event"
    },
    {
      "inputs": [],
      "name": "eip712Domain",
      "outputs": [
        {
          "internalType": "bytes1",
          "name": "fields",
          "type": "bytes1"
        },
        {
          "internalType": "string",
          "name": "name",
          "type": "string"
        },
        {
          "internalType": "string",
          "name": "version",
          "type": "string"
        },
        {
          "internalType": "uint256",
          "name": "chainId",
          "type": "uint256"
        },
        {
          "internalType": "address",
          "name": "verifyingContract",
          "type": "address"
        },
        {
          "internalType": "bytes32",
          "name": "salt",
          "type": "bytes32"
        },
        {
          "internalType": "uint256[]",
          "name": "extensions",
          "type": "uint256[]"
        }
      ],
      "stateMutability": "view",
      "type": "function"
    },
    {
      "inputs": [
        {
          "components": [
            {
              "internalType": "address",
              "name": "issuer",
              "type": "address"
            },
            {
              "internalType": "uint64",
              "name": "expiration",
              "type": "uint64"
            },
            {
              "internalType": "address",
              "name": "recipient",
              "type": "address"
            },
            {
              "internalType": "uint256",
              "name": "validatorId",
              "type": "uint256"
            },
            {
              "internalType": "address",
              "name": "validatorContract",
              "type": "address"
            },
            {
              "internalType": "bytes32",
              "name": "sealingKey",
              "type": "bytes32"
            },
            {
              "internalType": "bytes",
              "name": "issuerSignature",
              "type": "bytes"
            },
            {
              "internalType": "bytes",
              "name": "recipientSignature",
              "type": "bytes"
            }
          ],
          "internalType": "struct Permission",
          "name": "permission",
          "type": "tuple"
        }
      ],
      "name": "getCounterSealed",
      "outputs": [
        {
          "components": [
            {
              "internalType": "uint256",
              "name": "data",
              "type": "uint256"
            }
          ],
          "internalType": "struct PrivateCounter.SealedUint",
          "name": "",
          "type": "tuple"
        }
      ],
      "stateMutability": "nonpayable",
      "type": "function"
    },
    {
      "inputs": [
        {
          "internalType": "bytes32",
          "name": "structHash",
          "type": "bytes32"
        }
      ],
      "name": "hashTypedDataV4",
      "outputs": [
        {
          "internalType": "bytes32",
          "name": "",
          "type": "bytes32"
        }
      ],
      "stateMutability": "view",
      "type": "function"
    },
    {
      "inputs": [
        {
          "components": [
            {
              "internalType": "uint256",
              "name": "ctHash",
              "type": "uint256"
            },
            {
              "internalType": "uint8",
              "name": "securityZone",
              "type": "uint8"
            },
            {
              "internalType": "uint8",
              "name": "utype",
              "type": "uint8"
            },
            {
              "internalType": "bytes",
              "name": "signature",
              "type": "bytes"
            }
          ],
          "internalType": "struct InEuint32",
          "name": "encryptedAmount",
          "type": "tuple"
        }
      ],
      "name": "increment",
      "outputs": [],
      "stateMutability": "nonpayable",
      "type": "function"
    }
  ],
  "bytecode": "0x610160604052348015610010575f80fd5b5060408051808201825260038152621050d360ea1b602080830191909152825180840190935260018352603160f81b908301529061004e825f6100f7565b6101205261005d8160016100f7565b61014052815160208084019190912060e052815190820120610100524660a0526100e960e05161010051604080517f8b73c3c69bb8fe3d512ecc4cf759cc79239f7b179b0ffacaa9a75d522b39400f60208201529081019290925260608201524660808201523060a08201525f9060c00160405160208183030381529060405280519060200120905090565b60805250503060c05261031e565b5f6020835110156101125761010b83610129565b9050610123565b8161011d8482610207565b5060ff90505b92915050565b5f80829050601f8151111561015c578260405163305a27a960e01b815260040161015391906102c6565b60405180910390fd5b8051610167826102fb565b179392505050565b634e487b7160e01b5f52604160045260245ffd5b600181811c9082168061019757607f821691505b6020821081036101b557634e487b7160e01b5f52602260045260245ffd5b50919050565b601f82111561020257805f5260205f20601f840160051c810160208510156101e05750805b601f840160051c820191505b818110156101ff575f81556001016101ec565b50505b505050565b81516001600160401b038111156102205761022061016f565b6102348161022e8454610183565b846101bb565b602080601f831160018114610267575f84156102505750858301515b5f19600386901b1c1916600185901b1785556102be565b5f85815260208120601f198616915b8281101561029557888601518255948401946001909101908401610276565b50858210156102b257878501515f19600388901b60f8161c191681555b505060018460011b0185555b505050505050565b602081525f82518060208401528060208501604085015e5f604082850101526040601f19601f83011684010191505092915050565b805160208083015191908110156101b5575f1960209190910360031b1b16919050565b60805160a05160c05160e0516101005161012051610140516114e561036f5f395f6105b601525f61058501525f61098901525f61096101525f6108bc01525f6108e601525f61091001526114e55ff3fe608060405234801561000f575f80fd5b506004361061004a575f3560e01c806310ad300c1461004e5780634980f2881461007557806384b0196e1461009657806388b1da64146100b1575b5f80fd5b61006161005c366004611092565b6100c6565b604051905181526020015b60405180910390f35b610088610083366004611176565b610280565b60405190815260200161006c565b61009e610290565b60405161006c97969594939291906111f5565b6100c46100bf366004611264565b6102d2565b005b60408051602081019091525f81528142816020015167ffffffffffffffff1610156101045760405163ed0764a160e01b815260040160405180910390fd5b80516101259061011b6101168461033a565b610360565b8360c0015161038c565b61014257604051634c40eccb60e01b815260040160405180910390fd5b60408101516001600160a01b0316158015906101795750610177816040015161016d610116846103ff565b8360e0015161038c565b155b1561019757604051638e143bf760e01b815260040160405180910390fd5b6060810151158015906101b6575060808101516001600160a01b031615155b801561023957506080810151815160608301516040516316c6723d60e31b81526001600160a01b039283166004820152602481019190915291169063b63391e890604401602060405180830381865afa158015610215573d5f803e3d5ffd5b505050506040513d601f19601f82011682018060405250810190610239919061129b565b15610257576040516365e9d4b360e11b815260040160405180910390fd5b5f6102686002548560a00151610472565b60408051602081019091529081529250505b50919050565b5f61028a82610360565b92915050565b5f6060805f805f60606102a161057e565b6102a96105af565b604080515f80825260208201909252600f60f81b9b939a50919850469750309650945092509050565b5f6102e46102df836112ca565b6105dc565b90506102f260025482610676565b6002819055610300906106b7565b61030c60025433610720565b60405133907f773d4e328bf2144c69c7b424a9b0e4f17169e879f74635b2a492904d784eb83e905f90a25050565b60408101515f906001600160a01b03166103575761028a82610793565b61028a82610828565b5f61028a61036c6108b0565b8360405161190160f01b8152600281019290925260228201526042902090565b5f836001600160a01b03163b5f036103ea575f806103aa85856109d9565b5090925090505f8160038111156103c3576103c3611354565b1480156103e15750856001600160a01b0316826001600160a01b0316145b925050506103f8565b6103f5848484610a22565b90505b9392505050565b5f7f82af07a6c9eb6bb31a0c86f7f5cad0039589750ad5b4b925ed5741f7ad4e8d4b8260a001518360c0015180519060200120604051602001610455939291909283526020830191909152604082015260600190565b604051602081830303815290604052805190602001209050919050565b6040805160018082528183019092525f918291906020808301908036833701905050905083815f815181106104a9576104a9611368565b60209081029190910101526040805160018082528183019092525f91816020016020820280368337019050509050835f1c815f815181106104ec576104ec611368565b6020908102919091010152604051631888debd60e01b815273ea30c4b8b44078bbf8a6ef5b9f1ec1626c7848d990631888debd90610535905f906003908790879060040161139c565b6020604051808303815f875af1158015610551573d5f803e3d5ffd5b505050506040513d601f19601f8201168201806040525081019061057591906113e1565b95945050505050565b60606105aa7f00000000000000000000000000000000000000000000000000000000000000005f610af9565b905090565b60606105aa7f00000000000000000000000000000000000000000000000000000000000000006001610af9565b60408101515f9060049060ff1681146106205760408084015190516367cf307160e01b815260ff918216600482015290821660248201526044015b60405180910390fd5b60408051608080820183525f808352602080840182905283850191909152606092830183905283519182018452865182528087015160ff169082015260049281019290925280850151908201526103f890610ba2565b5f61068083610c1d565b6106905761068d5f610c26565b92505b61069982610c1d565b6106a9576106a65f610c26565b91505b6103f8600484846008610c31565b604051631974142760e21b81526004810182905230602482015273ea30c4b8b44078bbf8a6ef5b9f1ec1626c7848d9906365d0509c906044015f604051808303815f87803b158015610707575f80fd5b505af1158015610719573d5f803e3d5ffd5b5050505050565b604051631974142760e21b8152600481018390526001600160a01b038216602482015273ea30c4b8b44078bbf8a6ef5b9f1ec1626c7848d9906365d0509c906044015f604051808303815f87803b158015610779575f80fd5b505af115801561078b573d5f803e3d5ffd5b505050505050565b5f7f0ce0d938c38f948b8f9cf16098cd15ec62de132c8d422719ad270c5e2a101102825f015183602001518460400151856060015186608001518760a0015160405160200161045597969594939291909687526001600160a01b03958616602088015267ffffffffffffffff9490941660408701529184166060860152608085015290911660a083015260c082015260e00190565b5f7f8549e986c64faf9b741179c61561f9d39f337cf9739f86178d84dabc6ca4cad5825f01518360200151846040015185606001518660800151604051602001610455969594939291909586526001600160a01b03948516602087015267ffffffffffffffff939093166040860152908316606085015260808401521660a082015260c00190565b5f306001600160a01b037f00000000000000000000000000000000000000000000000000000000000000001614801561090857507f000000000000000000000000000000000000000000000000000000000000000046145b1561093257507f000000000000000000000000000000000000000000000000000000000000000090565b6105aa604080517f8b73c3c69bb8fe3d512ecc4cf759cc79239f7b179b0ffacaa9a75d522b39400f60208201527f0000000000000000000000000000000000000000000000000000000000000000918101919091527f000000000000000000000000000000000000000000000000000000000000000060608201524660808201523060a08201525f9060c00160405160208183030381529060405280519060200120905090565b5f805f8351604103610a10576020840151604085015160608601515f1a610a0288828585610c89565b955095509550505050610a1b565b505081515f91506002905b9250925092565b5f805f856001600160a01b03168585604051602401610a429291906113f8565b60408051601f198184030181529181526020820180516001600160e01b0316630b135d3f60e11b17905251610a779190611410565b5f60405180830381855afa9150503d805f8114610aaf576040519150601f19603f3d011682016040523d82523d5f602084013e610ab4565b606091505b5091509150818015610ac857506020815110155b8015610aef57508051630b135d3f60e11b90610aed90830160209081019084016113e1565b145b9695505050505050565b606060ff8314610b1357610b0c83610d51565b905061028a565b818054610b1f90611426565b80601f0160208091040260200160405190810160405280929190818152602001828054610b4b90611426565b8015610b965780601f10610b6d57610100808354040283529160200191610b96565b820191905f5260205f20905b815481529060010190602001808311610b7957829003601f168201915b5050505050905061028a565b6040516313fce3b160e11b81525f9073ea30c4b8b44078bbf8a6ef5b9f1ec1626c7848d9906327f9c76290610bdd9085903390600401611458565b6020604051808303815f875af1158015610bf9573d5f803e3d5ffd5b505050506040513d601f19601f8201168201806040525081019061028a91906113e1565b5f81151561028a565b5f61028a825f610d8e565b5f73ea30c4b8b44078bbf8a6ef5b9f1ec1626c7848d9631888debd8684610c588888610da4565b604080515f815260208101918290526001600160e01b031960e087901b16909152610535939291906024810161139c565b5f80807f7fffffffffffffffffffffffffffffff5d576e7357a4501ddfe92f46681b20a0841115610cc257505f91506003905082610d47565b604080515f808252602082018084528a905260ff891692820192909252606081018790526080810186905260019060a0016020604051602081039080840390855afa158015610d13573d5f803e3d5ffd5b5050604051601f1901519150506001600160a01b038116610d3e57505f925060019150829050610d47565b92505f91508190505b9450945094915050565b60605f610d5d83610e0d565b6040805160208082528183019092529192505f91906020820181803683375050509182525060208101929092525090565b5f80610d9c84600485610e34565b949350505050565b60408051600280825260608083018452925f92919060208301908036833701905050905083815f81518110610ddb57610ddb611368565b6020026020010181815250508281600181518110610dfb57610dfb611368565b60209081029190910101529392505050565b5f60ff8216601f81111561028a57604051632cd44ac360e21b815260040160405180910390fd5b604080515f8082526020820190925273ea30c4b8b44078bbf8a6ef5b9f1ec1626c7848d990631888debd908590601a90610e7a898960ff16610e758a610ed9565b610f0e565b6040518563ffffffff1660e01b8152600401610e99949392919061139c565b6020604051808303815f875af1158015610eb5573d5f803e3d5ffd5b505050506040513d601f19601f820116820180604052508101906103f591906113e1565b5f808260030b1215610f04576040516311ead17f60e31b8152600383900b6004820152602401610617565b5063ffffffff1690565b604080516003808252608082019092526060915f919060208201848036833701905050905084815f81518110610f4657610f46611368565b6020026020010181815250508381600181518110610f6657610f66611368565b6020026020010181815250508281600281518110610f8657610f86611368565b6020908102919091010152949350505050565b634e487b7160e01b5f52604160045260245ffd5b604051610100810167ffffffffffffffff81118282101715610fd157610fd1610f99565b60405290565b80356001600160a01b0381168114610fed575f80fd5b919050565b803567ffffffffffffffff81168114610fed575f80fd5b5f82601f830112611018575f80fd5b813567ffffffffffffffff8082111561103357611033610f99565b604051601f8301601f19908116603f0116810190828211818310171561105b5761105b610f99565b81604052838152866020858801011115611073575f80fd5b836020870160208301375f602085830101528094505050505092915050565b5f602082840312156110a2575f80fd5b813567ffffffffffffffff808211156110b9575f80fd5b9083019061010082860312156110cd575f80fd5b6110d5610fad565b6110de83610fd7565b81526110ec60208401610ff2565b60208201526110fd60408401610fd7565b60408201526060830135606082015261111860808401610fd7565b608082015260a083013560a082015260c083013582811115611138575f80fd5b61114487828601611009565b60c08301525060e08301358281111561115b575f80fd5b61116787828601611009565b60e08301525095945050505050565b5f60208284031215611186575f80fd5b5035919050565b5f81518084528060208401602086015e5f602082860101526020601f19601f83011685010191505092915050565b5f815180845260208085019450602084015f5b838110156111ea578151875295820195908201906001016111ce565b509495945050505050565b60ff60f81b8816815260e060208201525f61121360e083018961118d565b8281036040840152611225818961118d565b606084018890526001600160a01b038716608085015260a0840186905283810360c0850152905061125681856111bb565b9a9950505050505050505050565b5f60208284031215611274575f80fd5b813567ffffffffffffffff81111561128a575f80fd5b8201608081850312156103f8575f80fd5b5f602082840312156112ab575f80fd5b815180151581146103f8575f80fd5b803560ff81168114610fed575f80fd5b5f608082360312156112da575f80fd5b6040516080810167ffffffffffffffff82821081831117156112fe576112fe610f99565b8160405284358352611312602086016112ba565b6020840152611323604086016112ba565b6040840152606085013591508082111561133b575f80fd5b5061134836828601611009565b60608301525092915050565b634e487b7160e01b5f52602160045260245ffd5b634e487b7160e01b5f52603260045260245ffd5b6020811061139857634e487b7160e01b5f52602160045260245ffd5b9052565b60ff851681526113af602082018561137c565b608060408201525f6113c460808301856111bb565b82810360608401526113d681856111bb565b979650505050505050565b5f602082840312156113f1575f80fd5b5051919050565b828152604060208201525f6103f5604083018461118d565b5f82518060208501845e5f920191825250919050565b600181811c9082168061143a57607f821691505b60208210810361027a57634e487b7160e01b5f52602260045260245ffd5b604081528251604082015260ff602084015116606082015260ff60408401511660808201525f6060840151608060a084015261149760c084018261118d565b91505060018060a01b0383166020830152939250505056fea264697066735822122006688844fc18e8bff1bb4c593b6fd4150849050458e15b62a75727727247f79464736f6c63430008190033",
  "linkReferences": {},
  "deployedLinkReferences": {}
}