{
  "_format": "hh-sol-artifact-1",
  "contractName": "MockPermissioned",
  "sourceName": "@fhenixprotocol/cofhe-mock-contracts/Permissioned.sol",
  "abi": [
    {
      "inputs": [],
      "stateMutability": "nonpayable",
      "type": "constructor"
    },
    {
      "inputs": [],
      "name": "InvalidShortString",
      "type": "error"
    },
    {
      "inputs": [],
      "name": "PermissionInvalid_Disabled",
      "type": "error"
    },
    {
      "inputs": [],
      "name": "PermissionInvalid_Expired",
      "type": "error"
    },
    {
      "inputs": [],
      "name": "PermissionInvalid_IssuerSignature",
      "type": "error"
    },
    {
      "inputs": [],
      "name": "PermissionInvalid_RecipientSignature",
      "type": "error"
    },
    {
      "inputs": [
        {
          "internalType": "string",
          "name": "str",
          "type": "string"
        }
      ],
      "name": "StringTooLong",
      "type": "error"
    },
    {
      "anonymous": false,
      "inputs": [],
      "name": "EIP712DomainChanged",
      "type": "event"
    },
    {
      "inputs": [],
      "name": "eip712Domain",
      "outputs": [
        {
          "internalType": "bytes1",
          "name": "fields",
          "type": "bytes1"
        },
        {
          "internalType": "string",
          "name": "name",
          "type": "string"
        },
        {
          "internalType": "string",
          "name": "version",
          "type": "string"
        },
        {
          "internalType": "uint256",
          "name": "chainId",
          "type": "uint256"
        },
        {
          "internalType": "address",
          "name": "verifyingContract",
          "type": "address"
        },
        {
          "internalType": "bytes32",
          "name": "salt",
          "type": "bytes32"
        },
        {
          "internalType": "uint256[]",
          "name": "extensions",
          "type": "uint256[]"
        }
      ],
      "stateMutability": "view",
      "type": "function"
    },
    {
      "inputs": [
        {
          "internalType": "bytes32",
          "name": "structHash",
          "type": "bytes32"
        }
      ],
      "name": "hashTypedDataV4",
      "outputs": [
        {
          "internalType": "bytes32",
          "name": "",
          "type": "bytes32"
        }
      ],
      "stateMutability": "view",
      "type": "function"
    }
  ],
  "bytecode": "0x610160604052348015610010575f80fd5b5060408051808201825260038152621050d360ea1b602080830191909152825180840190935260018352603160f81b908301529061004e825f6100f7565b6101205261005d8160016100f7565b61014052815160208084019190912060e052815190820120610100524660a0526100e960e05161010051604080517f8b73c3c69bb8fe3d512ecc4cf759cc79239f7b179b0ffacaa9a75d522b39400f60208201529081019290925260608201524660808201523060a08201525f9060c00160405160208183030381529060405280519060200120905090565b60805250503060c05261031e565b5f6020835110156101125761010b83610129565b9050610123565b8161011d8482610207565b5060ff90505b92915050565b5f80829050601f8151111561015c578260405163305a27a960e01b815260040161015391906102c6565b60405180910390fd5b8051610167826102fb565b179392505050565b634e487b7160e01b5f52604160045260245ffd5b600181811c9082168061019757607f821691505b6020821081036101b557634e487b7160e01b5f52602260045260245ffd5b50919050565b601f82111561020257805f5260205f20601f840160051c810160208510156101e05750805b601f840160051c820191505b818110156101ff575f81556001016101ec565b50505b505050565b81516001600160401b038111156102205761022061016f565b6102348161022e8454610183565b846101bb565b602080601f831160018114610267575f84156102505750858301515b5f19600386901b1c1916600185901b1785556102be565b5f85815260208120601f198616915b8281101561029557888601518255948401946001909101908401610276565b50858210156102b257878501515f19600388901b60f8161c191681555b505060018460011b0185555b505050505050565b602081525f82518060208401528060208501604085015e5f604082850101526040601f19601f83011684010191505092915050565b805160208083015191908110156101b5575f1960209190910360031b1b16919050565b60805160a05160c05160e0516101005161012051610140516104d661036e5f395f61012f01525f60fe01525f61022e01525f61020601525f61016101525f61018b01525f6101b501526104d65ff3fe608060405234801561000f575f80fd5b5060043610610034575f3560e01c80634980f2881461003857806384b0196e1461005e575b5f80fd5b61004b61004636600461038c565b610079565b6040519081526020015b60405180910390f35b610066610089565b60405161005597969594939291906103d1565b5f610083826100cb565b92915050565b5f6060805f805f606061009a6100f7565b6100a2610128565b604080515f80825260208201909252600f60f81b9b939a50919850469750309650945092509050565b5f6100836100d7610155565b8360405161190160f01b8152600281019290925260228201526042902090565b60606101237f00000000000000000000000000000000000000000000000000000000000000005f61027e565b905090565b60606101237f0000000000000000000000000000000000000000000000000000000000000000600161027e565b5f306001600160a01b037f0000000000000000000000000000000000000000000000000000000000000000161480156101ad57507f000000000000000000000000000000000000000000000000000000000000000046145b156101d757507f000000000000000000000000000000000000000000000000000000000000000090565b610123604080517f8b73c3c69bb8fe3d512ecc4cf759cc79239f7b179b0ffacaa9a75d522b39400f60208201527f0000000000000000000000000000000000000000000000000000000000000000918101919091527f000000000000000000000000000000000000000000000000000000000000000060608201524660808201523060a08201525f9060c00160405160208183030381529060405280519060200120905090565b606060ff83146102985761029183610328565b9050610083565b8180546102a490610468565b80601f01602080910402602001604051908101604052809291908181526020018280546102d090610468565b801561031b5780601f106102f25761010080835404028352916020019161031b565b820191905f5260205f20905b8154815290600101906020018083116102fe57829003601f168201915b5050505050905092915050565b60605f61033483610365565b6040805160208082528183019092529192505f91906020820181803683375050509182525060208101929092525090565b5f60ff8216601f81111561008357604051632cd44ac360e21b815260040160405180910390fd5b5f6020828403121561039c575f80fd5b5035919050565b5f81518084528060208401602086015e5f602082860101526020601f19601f83011685010191505092915050565b60ff60f81b881681525f602060e060208401526103f160e084018a6103a3565b8381036040850152610403818a6103a3565b606085018990526001600160a01b038816608086015260a0850187905284810360c0860152855180825260208088019350909101905f5b818110156104565783518352928401929184019160010161043a565b50909c9b505050505050505050505050565b600181811c9082168061047c57607f821691505b60208210810361049a57634e487b7160e01b5f52602260045260245ffd5b5091905056fea26469706673582212201ce875dfc9c7bc4c359cb412fc0abbb77c9e9ea36cc12cb3cac931aec8d808a664736f6c63430008190033",
  "linkReferences": {},
  "deployedLinkReferences": {}
}